{
  "contractName": "ShipmentContract",
  "abi": [
    {
      "anonymous": false,
      "inputs": [
        {
          "indexed": false,
          "internalType": "uint256",
          "name": "shipmentId",
          "type": "uint256"
        }
      ],
      "name": "ShipmentAdded",
      "type": "event"
    },
    {
      "inputs": [],
      "name": "shipmentCount",
      "outputs": [
        {
          "internalType": "uint256",
          "name": "",
          "type": "uint256"
        }
      ],
      "stateMutability": "view",
      "type": "function",
      "constant": true
    },
    {
      "inputs": [
        {
          "internalType": "uint256",
          "name": "",
          "type": "uint256"
        }
      ],
      "name": "shipments",
      "outputs": [
        {
          "internalType": "uint256",
          "name": "shipmentId",
          "type": "uint256"
        },
        {
          "internalType": "uint256",
          "name": "netWeight",
          "type": "uint256"
        },
        {
          "internalType": "uint256",
          "name": "shipmentValue",
          "type": "uint256"
        }
      ],
      "stateMutability": "view",
      "type": "function",
      "constant": true
    },
    {
      "inputs": [
        {
          "internalType": "uint256",
          "name": "_netWeight",
          "type": "uint256"
        },
        {
          "internalType": "address[]",
          "name": "_stakeholders",
          "type": "address[]"
        },
        {
          "internalType": "uint256",
          "name": "_shipmentValue",
          "type": "uint256"
        }
      ],
      "name": "addShipment",
      "outputs": [],
      "stateMutability": "nonpayable",
      "type": "function"
    },
    {
      "inputs": [],
      "name": "getAllShipments",
      "outputs": [
        {
          "components": [
            {
              "internalType": "uint256",
              "name": "shipmentId",
              "type": "uint256"
            },
            {
              "internalType": "uint256",
              "name": "netWeight",
              "type": "uint256"
            },
            {
              "internalType": "address[]",
              "name": "stakeholders",
              "type": "address[]"
            },
            {
              "internalType": "uint256",
              "name": "shipmentValue",
              "type": "uint256"
            }
          ],
          "internalType": "struct ShipmentContract.Shipment[]",
          "name": "",
          "type": "tuple[]"
        }
      ],
      "stateMutability": "view",
      "type": "function",
      "constant": true
    }
  ],
  "bytecode": "0x608060405234801561001057600080fd5b50610a08806100206000396000f3fe608060405234801561001057600080fd5b506004361061004c5760003560e01c80632ac08a9314610051578063494dad6c14610083578063aace20b7146100a1578063cd96b1a6146100bf575b600080fd5b61006b6004803603810190610066919061052b565b6100db565b60405161007a93929190610787565b60405180910390f35b61008b610105565b604051610098919061074a565b60405180910390f35b6100a96102cb565b6040516100b6919061076c565b60405180910390f35b6100d960048036038101906100d49190610554565b6102d1565b005b60006020528060005260406000206000915090508060000154908060010154908060030154905083565b6060600060015467ffffffffffffffff81111561014b577f4e487b7100000000000000000000000000000000000000000000000000000000600052604160045260246000fd5b60405190808252806020026020018201604052801561018457816020015b61017161039c565b8152602001906001900390816101695790505b5090506000600190505b60015481116102c35760008082815260200190815260200160002060405180608001604052908160008201548152602001600182015481526020016002820180548060200260200160405190810160405280929190818152602001828054801561024d57602002820191906000526020600020905b8160009054906101000a900473ffffffffffffffffffffffffffffffffffffffff1673ffffffffffffffffffffffffffffffffffffffff1681526020019060010190808311610203575b505050505081526020016003820154815250508260018361026e919061088d565b815181106102a5577f4e487b7100000000000000000000000000000000000000000000000000000000600052603260045260246000fd5b602002602001018190525080806102bb906108fd565b91505061018e565b508091505090565b60015481565b600160008154809291906102e4906108fd565b919050555060405180608001604052806001548152602001848152602001838152602001828152506000806001548152602001908152602001600020600082015181600001556020820151816001015560408201518160020190805190602001906103509291906103c4565b50606082015181600301559050507f379554d29787a5de6ba3fe581d00788337527a61bb21a7e1c3fe7c46cb01952160015460405161038f919061076c565b60405180910390a1505050565b6040518060800160405280600081526020016000815260200160608152602001600081525090565b82805482825590600052602060002090810192821561043d579160200282015b8281111561043c5782518260006101000a81548173ffffffffffffffffffffffffffffffffffffffff021916908373ffffffffffffffffffffffffffffffffffffffff160217905550916020019190600101906103e4565b5b50905061044a919061044e565b5090565b5b8082111561046757600081600090555060010161044f565b5090565b600061047e610479846107ef565b6107be565b9050808382526020820190508285602086028201111561049d57600080fd5b60005b858110156104cd57816104b388826104d7565b8452602084019350602083019250506001810190506104a0565b5050509392505050565b6000813590506104e6816109a4565b92915050565b600082601f8301126104fd57600080fd5b813561050d84826020860161046b565b91505092915050565b600081359050610525816109bb565b92915050565b60006020828403121561053d57600080fd5b600061054b84828501610516565b91505092915050565b60008060006060848603121561056957600080fd5b600061057786828701610516565b935050602084013567ffffffffffffffff81111561059457600080fd5b6105a0868287016104ec565b92505060406105b186828701610516565b9150509250925092565b60006105c783836105e7565b60208301905092915050565b60006105df83836106c9565b905092915050565b6105f0816108c1565b82525050565b60006106018261083b565b61060b818561086b565b93506106168361081b565b8060005b8381101561064757815161062e88826105bb565b975061063983610851565b92505060018101905061061a565b5085935050505092915050565b600061065f82610846565b610669818561087c565b93508360208202850161067b8561082b565b8060005b858110156106b7578484038952815161069885826105d3565b94506106a38361085e565b925060208a0199505060018101905061067f565b50829750879550505050505092915050565b60006080830160008301516106e1600086018261072c565b5060208301516106f4602086018261072c565b506040830151848203604086015261070c82826105f6565b9150506060830151610721606086018261072c565b508091505092915050565b610735816108f3565b82525050565b610744816108f3565b82525050565b600060208201905081810360008301526107648184610654565b905092915050565b6000602082019050610781600083018461073b565b92915050565b600060608201905061079c600083018661073b565b6107a9602083018561073b565b6107b6604083018461073b565b949350505050565b6000604051905081810181811067ffffffffffffffff821117156107e5576107e4610975565b5b8060405250919050565b600067ffffffffffffffff82111561080a57610809610975565b5b602082029050602081019050919050565b6000819050602082019050919050565b6000819050602082019050919050565b600081519050919050565b600081519050919050565b6000602082019050919050565b6000602082019050919050565b600082825260208201905092915050565b600082825260208201905092915050565b6000610898826108f3565b91506108a3836108f3565b9250828210156108b6576108b5610946565b5b828203905092915050565b60006108cc826108d3565b9050919050565b600073ffffffffffffffffffffffffffffffffffffffff82169050919050565b6000819050919050565b6000610908826108f3565b91507fffffffffffffffffffffffffffffffffffffffffffffffffffffffffffffffff82141561093b5761093a610946565b5b600182019050919050565b7f4e487b7100000000000000000000000000000000000000000000000000000000600052601160045260246000fd5b7f4e487b7100000000000000000000000000000000000000000000000000000000600052604160045260246000fd5b6109ad816108c1565b81146109b857600080fd5b50565b6109c4816108f3565b81146109cf57600080fd5b5056fea26469706673582212204892d97587f1252f992823a4263b97abe17e9742fd35ff0f83fbf328ba16cd1964736f6c63430008000033",
  "immutableReferences": {},
  "source": "// contracts/ShipmentContract.sol\r\n// SPDX-License-Identifier: MIT\r\npragma solidity ^0.8.0;\r\n\r\ncontract ShipmentContract {\r\n    struct Shipment {\r\n        uint256 shipmentId;\r\n        uint256 netWeight;\r\n        address[] stakeholders;\r\n        uint256 shipmentValue;\r\n    }\r\n\r\n    mapping(uint256 => Shipment) public shipments;\r\n    uint256 public shipmentCount;\r\n\r\n    event ShipmentAdded(uint256 shipmentId);\r\n\r\n    function addShipment(uint256 _netWeight, address[] memory _stakeholders, uint256 _shipmentValue) public {\r\n        shipmentCount++;\r\n        shipments[shipmentCount] = Shipment(shipmentCount, _netWeight, _stakeholders, _shipmentValue);\r\n        emit ShipmentAdded(shipmentCount);\r\n    }\r\n\r\n    function getAllShipments() public view returns (Shipment[] memory) {\r\n        Shipment[] memory allShipments = new Shipment[](shipmentCount);\r\n        for (uint256 i = 1; i <= shipmentCount; i++) {\r\n            allShipments[i - 1] = shipments[i];\r\n        }\r\n        return allShipments;\r\n    }\r\n}\r\n",
  "sourcePath": "D:\\CargoLynx\\truffleblockchain\\contracts\\ShipmentContract.sol",
  "compiler": {
    "name": "solc",
    "version": "0.8.0+commit.c7dfd78e.Emscripten.clang"
  },
  "schemaVersion": "3.4.16",
  "updatedAt": "2024-04-19T15:38:30.995Z",
  "networkType": "ethereum",
  "devdoc": {
    "kind": "dev",
    "methods": {},
    "version": 1
  },
  "userdoc": {
    "kind": "user",
    "methods": {},
    "version": 1
  }
}